:1000000045C0000053C0000051C000004FC00000B8
:100010004DC000004BC0000049C0000047C00000B8
:1000200045C0000043C0000041C000003FC00000C8
:100030004FC300003BC0000041C300002BC30000C1
:1000400035C0000033C0000031C000002FC00000E8
:100050002DC000002BC0000029C0000027C00000F8
:1000600025C0000023C0000021C000001FC0000008
:100070001DC000001BC0000019C0000017C0000018
:1000800015C0000013C0000011C0000011241FBEE5
:10009000CFEFD0E1DEBFCDBF21E0A0E0B1E001C0F5
:1000A0001D92A135B207E1F71CD00DC4A9CF8AB3C8
:1000B000886F8ABBE4E6F0E080818460808384B34B
:1000C000806E84BB84B38F6184BB808182608083B7
:1000D00011BA959AE5E6F0E0808188618083C79A3D
:1000E0000895E5DFCFD280E88FBF00910001109125
:1000F0000101D0910201C0910301209106013091CC
:1001000007012130310589F4109207011092060190
:1001100020E030E040E85FE3602F712F8D2F9C2FAF
:10012000F5D2062F172FD82FC92F20E030E048EC4A
:1001300052E4602F712F8D2F9C2F4CD38111DDCF76
:10014000109200011092010110920201109203011D
:100150007DD2CBCF20914B0130914C0180912C016D
:1001600090912D012817390739F081E090E09093A4
:1001700019018093180104C01092190110921801FE
:1001800020914F01309150018091300190913101C7
:100190002817390739F081E090E090931D01809392
:1001A0001C0104C010921D0110921C0120914D01F0
:1001B00030914E0180912E0190912F01281739071F
:1001C00039F081E090E090931B0180931A0108952B
:1001D00010921B0110921A0108951092330110928F
:1001E0003201859903C0859B04C00EC08599FECF5E
:1001F000FACF8091320190913301019690933301AF
:1002000080933201859BF5CF81E090E0209132010F
:10021000309133012531310514F080E090E00895EC
:10022000813039F48FE090E0909333018093320174
:1002300006C080E590E09093330180933201E5E6BB
:10024000F0E080818260808380913201909133015F
:10025000009739F001970097E9F710923301109257
:100260003201E5E6F0E080818D7F8083859BFECFC3
:1002700008951F93CF93DF93182FC8E0D0E0859B9C
:1002800002C08599FECF10FF03C081E0C9DF02C024
:1002900080E0C6DF16952197209789F7DF91CF91EF
:1002A0001F9108950F931F93CF93DF93C4E3D1E081
:1002B00008E311E08991DDDFC017D107D9F7DF919D
:1002C000CF911F910F91089580E280933401EACF7E
:1002D0000895E5E6F0E080818D7F8083AC98A99851
:1002E000A898AB98AA9810920B0110920A0110924C
:1002F000170110921601109215011092140110921C
:100300000D0110920C0110920F0110920E0110922B
:1003100011011092100110921901109218011092FF
:100320001D0110921C0110921B0110921A010895D8
:10033000DB98DC98DD98DE98DF98E5E6F0E08081D8
:100340008B7F8083AF98AE98AD980895E5E6F0E096
:10035000808182608083AC9AA99AA89AAB9AAA9A63
:100360000895E6DF80910A0190910B01019709F44D
:10037000DB9A8091160190911701019709F4DC9A9C
:100380008091140190911501019709F4DD9A8091F3
:100390000C0190910D01019709F4DE9A80910E01F4
:1003A00090910F01019709F4DF9A809110019091CB
:1003B0001101019729F4E5E6F0E0808184608083F3
:1003C0008091180190911901019709F4AF9A8091D9
:1003D0001C0190911D01019709F4AE9A80911A01B8
:1003E00090911B01019709F4AD9A0895CF93DF9383
:1003F00010923C01C8E0D0E080913C01869580934A
:100400003C01EBDE019729F480913C0180688093E8
:100410003C012197209781F780913C01893019F4A4
:1004200058DF52DF85DF80913C01803111F48EDF8F
:100430004BDF80913C01813161F5B79B05C0109283
:100440004C0110924B0106C081E090E090934C016A
:1004500080934B018091630084FF05C010924E0190
:1004600010924D0106C081E090E090934E01809380
:100470004D018091630083FF05C0109250011092DE
:100480004F0106C081E090E09093500180934F01AE
:100490001BDF80913C01823169F5B79B07C081E089
:1004A00090E090932D0180932C0104C010922D01B7
:1004B00010922C018091630084FF07C081E090E0DE
:1004C00090932F0180932E0104C010922F0110925F
:1004D0002E018091630083FF07C081E090E090933C
:1004E00031018093300104C010923101109230012B
:1004F000EBDE30DE80913C018331B9F420911801AC
:100500003091190180911A0190911B01820F931F64
:1005100020911C0130911D01820F931F90930901BE
:100520008093080180933401BDDE80913C018431C9
:10053000E1F48091180190911901019719F481E07B
:100540008093340180911C0190911D01019719F451
:1005500081E08093350180911A0190911B010197F0
:1005600019F481E0809336019DDE80913C01853154
:1005700009F4F7DE80913C018138B0F180FF0AC0B8
:1005800095B380E4892785BB81E090E090930B01CF
:1005900080930A0120913C0121FF06C081E090E098
:1005A000909317018093160122FF06C081E090E02E
:1005B000909315018093140123FF06C081E090E021
:1005C00090930D0180930C0124FF06C081E090E020
:1005D00090930F0180930E0125FF06C081E090E00B
:1005E0009093110180931001DF91CF91089589E1DB
:1005F00090E001970097E9F781E090E09093330154
:1006000080933201E5E6F0E0908182E089278083E3
:1006100083E091E001970097E9F781E090E0909303
:10062000330180933201E5E6F0E0908182E0892792
:1006300080838DE290E001970097E9F781E090E0F8
:100640009093330180933201D1CE089510923301FB
:1006500010923201859903C0859B04C00895859945
:10066000FECFFACF809132019091330101969093A1
:10067000330180933201859BF5CF8D3791400CF08B
:10068000B6CF08958FE083BF8DE481BF87B78260C6
:1006900087BF08951F920F920FB60F9211248F9368
:1006A0009F9381E090E090930701809306019F91D2
:1006B0008F910F900FBE0F901F9018951F920F9261
:1006C0000FB60F9211240F900FBE0F901F90189528
:1006D0001F920F920FB60F9211248F939F9381E078
:1006E00090E090930701809306018091040190911E
:1006F0000501019690930501809304019F918F91CC
:100700000F900FBE0F901F9018955058BB27AA2727
:100710000ED09FC090D030F095D020F031F49F3FA4
:1007200011F41EF485C00EF4E095E7FB7BC0E92FC1
:10073000A1D080F3BA17620773078407950718F0F2
:1007400071F49EF5B9C00EF4E0950B2EBA2FA02DD2
:100750000B01B90190010C01CA01A0011124FF276E
:10076000591B99F0593F50F4503E68F11A16F04069
:10077000A22F232F342F4427585FF3CF4695379568
:100780002795A795F0405395C9F77EF41F16BA0B2D
:10079000620B730B840BBAF09150A1F0FF0FBB1FDB
:1007A000661F771F881FC2F70EC0BA0F621F731F24
:1007B000841F48F4879577956795B795F7959E3F81
:1007C00008F0B3CF9395880F08F09927EE0F97950F
:1007D0008795089503D008F481E00895990F0008E3
:1007E000550FAA0BE0E8FEEF16161706E807F90703
:1007F000C0F012161306E407F50798F0621B730B9E
:10080000840B950B39F40A2661F0232B242B252B1E
:1008100021F408950A2609F4A140A6958FEF811DC1
:10082000811D089597F99F6780E870E060E0089562
:100830009FEF80EC089500240A94161617061806F8
:100840000906089500240A941216130614060506D4
:100850000895092E0394000C11F4882352F0BB0F65
:1008600040F4BF2B11F460FF04C06F5F7F4F8F4FC8
:100870009F4F089557FD9058440F551F59F05F3F03
:1008800071F04795880F97FB991F61F09F3F79F0B2
:1008900087950895121613061406551FF2CF469534
:1008A000F1DF08C0161617061806991FF1CF8695B6
:1008B0007105610508940895E894BB27662777279A
:0A08C000CB0197F90895F894FFCFDB
:00000001FF
